:020000040800F2
:1000000090080020310C0008F1020008F3020008FB
:10001000F7020008FB020008FF02000800000000D1
:1000200000000000000000000000000003030008C2
:10003000050300080000000007030008090300088A
:100040004B0C00084B0C00084B0C00084B0C000834
:100050004B0C00084B0C00084B0C00084B0C000824
:100060004B0C00084B0C00084B0C00084B0C000814
:100070004B0C00084B0C00084B0C00084B0C000804
:100080004B0C00084B0C00084B0C00084B0C0008F4
:100090004B0C00084B0C00084B0C00084B0C0008E4
:1000A0004B0C00084B0C00084B0C00084B0C0008D4
:1000B0004B0C00084B0C00084B0C00084B0C0008C4
:1000C0004B0C00084B0C00084B0C00084B0C0008B4
:1000D0004B0C0008A70B00084B0C0008F90800089F
:1000E0004B0C00084B0C00084B0C00084B0C000894
:1000F0004B0C00084B0C00084B0C00084B0C000884
:100100004B0C00084B0C00084B0C00084B0C000873
:100110004B0C00084B0C00084B0C00084B0C000863
:100120004B0C00084B0C00084B0C00084B0C000853
:1001300000F002F800F03FF80AA090E8000C8244BA
:100140008344AAF10107DA4501D100F034F8AFF297
:10015000090EBAE80F0013F0010F18BFFB1A43F0A5
:1001600001031847F01B0000101C0000103A24BFC8
:1001700078C878C1FAD8520724BF30C830C144BF0C
:1001800004680C607047000000230024002500264E
:10019000103A28BF78C1FBD8520728BF30C148BFEA
:1001A0000B607047642901F09F83002070471FB5E2
:1001B0001FBD10B510BD01F095FD1146FFF7F7FF0B
:1001C00000F008F801F0B3FD03B4FFF7F2FF03BC41
:1001D00000F08EFCD2B000F021FC4FF4A06000F0E3
:1001E00047FD4FF4165000F092FC4FF4FA7000F007
:1001F00052FC4FF4165000F02BFB4FF4FA7000F055
:100200004AFC00F0A5FA4FE0694601A800F0EDF9BC
:100210004FF4FA7000F03FFC9DF8041023A001F0A9
:100220001BFB4FF4FA7000F036FC9DF8001022A082
:1002300001F012FB50213EA801F09CFC50212AA89D
:1002400001F098FC1FA12AA801F023FC9DF80020D2
:1002500020A13EA801F00CFB3EA92AA801F05CFCFD
:10026000642000F018FC1DA12AA800F049FA5021D2
:1002700016A801F07FFC502102A801F07BFC18A118
:1002800002A801F006FC9DF8042012A116A801F0B6
:10029000EFFA16A902A801F03FFC642000F0FBFB76
:1002A0000EA102A800F02CFAAEE70000CEC2B6C83C
:1002B000A3BA25640D0A0000CAAAB6C8A3BA256469
:1002C0000D0A000041542B4E534F53443D302C3106
:1002D0002C0000002532640D0A0000004F4B000086
:1002E00041542B4E534F53443D312C312C000000D0
:1002F000704700BFFEE700BFFEE700BFFEE700BF9C
:10030000FEE7704770477047704700000CB500204B
:10031000019000906C48006840F480306A490860A1
:1003200000BF6948006800F4003000900198401C4C
:100330000190009818B90198B0F5A06FF1D162480A
:10034000006800F4003010B10120009001E00020AE
:1003500000900098012843D15C48006840F01000EC
:100360005A4908600846006820F003000860084603
:10037000006840F0020008605348406852494860F5
:100380000846406848600846406840F4806048601D
:100390000846406820F47C1048600846406840F4F5
:1003A000E81048600846006840F08070086000BFB0
:1003B0004548006800F000700028F9D042484068C5
:1003C00020F00300404948600846406840F00200C1
:1003D000486000BF3C48406800F00C000828F9D194
:1003E0000CBD10B5FFF792FF10BD10B53648006880
:1003F00040F001003449086008464068344908402C
:100400003149486008460068324908402E49086072
:100410000846006820F4802008600846406820F400
:10042000FE0048604FF41F008860FFF7DAFF4FF0CE
:1004300000602949086010BD10B50021002000228D
:10044000214B5B6803F00C0121B1042906D0082977
:1004500028D107E0214B224C236027E01F4B204C82
:10046000236023E0184B5B6803F47010164B5B6845
:1004700003F48032022303EB904022B9194B43432B
:10048000174C23600DE0104B5B6803F4003323B17D
:10049000144B4343124C236003E0104B4343104C76
:1004A000236003E00D4B0E4C236000BF00BF064BE2
:1004B0005B68C3F303130C4CE15C094B1B68CB4036
:1004C000074C236010BD00000010024000200240D5
:1004D0000000FFF8FFFFF6FE08ED00E000127A00D2
:1004E0000000002000093D000400002010B5644811
:1004F000006820F47040624908600846006840F4D3
:100500004050086000205F490860142000F0C3FAE2
:1005100001205D49C1F8AC011E2000F098FA10BD21
:1005200010B500245648006820F470405449086013
:100530000846006840F40040086004E0601CC4B253
:10054000012000F084FA4F488038006808B1642C1C
:10055000F4DB642C01DB012010BD002404E0601CEE
:10056000C4B2012000F073FA46488038006808B928
:10057000642CF4DB642C01DB0120EDE70020EBE7C9
:1005800010B5002404E0601CC4B2012000F05FFA42
:100590003C488038006808B1642CF4DB002404E097
:1005A000601CC4B2012000F052FA3648803800685E
:1005B00008B9642CF4DB282000F049FA314880386F
:1005C000006808B1012010BD0020FCE770B50024D0
:1005D000002506E06006040EFFF7D2FF0443681C06
:1005E000C5B2082DF6DB204670BD7CB505460E462B
:1005F000FFF77CFFFFF794FFF8B9002405E0FFF751
:10060000E5FF0DF80400601CC4B2052CF7DB9DF873
:1006100000009DF8011008449DF8021008449DF860
:10062000031008449DF80410884208D19DF800008A
:1006300030709DF80200287001E001207CBD002090
:10064000FCE708B50121042000F09CFE4FF4006097
:10065000ADF8000010208DF8030003208DF8020093
:1006600069460748001F00F0D1FB4FF400610448C1
:10067000001F00F078FCFFF739FFFFF751FF08BDBE
:1006800004080140AC0121420000214210B5FA21CA
:10069000AA4801F04DFA0020A949088010BDA848D9
:1006A000008808B901207047A548B0F90000A549A5
:1006B000B1F90010884203D10020A1490880F2E777
:1006C0009F48B0F900009F4908800120EBE72DE921
:1006D000F04107460C46154600260DE014F8011BB4
:1006E000384600F0EFFF00BF4021384601F058F8CF
:1006F0000028F9D0701C86B2AE42EFDBBDE8F08175
:100700002DE9F04104460D46C826204601F0E5F9E2
:1007100087B23A4621468C48FFF7D9FFFFF7B6FF6C
:100720000FE0FFF7BCFF48B92946844801F09FF964
:1007300020B1FFF7ABFF0020BDE8F0810F2000F0F3
:10074000AAF93000A6F10101CEB2EAD10120F3E707
:1007500010B503E04FF4FA7000F09DF97BA17CA086
:10076000FFF7CEFF0028F5D17DA001F075F84FF41A
:10077000FA7000F090F903E04FF4FA7000F08BF992
:1007800072A17AA0FFF7BCFF0028F5D17BA001F091
:1007900063F84FF4FA7000F07EF903E04FF4FA705A
:1007A00000F079F969A178A0FFF7AAFF0028F5D138
:1007B00079A001F051F84FF4FA7000F06CF903E001
:1007C0004FF4FA7000F067F960A176A0FFF798FF88
:1007D0000028F5D17AA001F03FF84FF4FA7000F04C
:1007E0005AF903E04FF4FA7000F055F957A16DA0E3
:1007F000FFF786FF0028F5D174A001F02DF84FF423
:10080000FA7000F048F903E04FF4FA7000F043F991
:100810004EA171A0FFF774FF0028F5D16BA001F085
:100820001BF84FF4FA7000F036F903E04FF4FA7059
:1008300000F031F945A170A0FFF762FF0028F5D163
:1008400062A001F009F84FF4FA7000F024F910BD2D
:1008500010B586B004460121082000F093FD4FF446
:100860008060ADF8140018208DF8170003208DF873
:10087000160005A9684800F0C9FA4FF40060ADF809
:10088000140004208DF8170005A9634800F0BEFA93
:100890000121880400F083FD01940020ADF80800D8
:1008A000ADF80A00ADF80C00ADF810000C20ADF862
:1008B0000E0001A9244800F00CFE27208DF800004E
:1008C00001208DF801008DF802008DF803006846C4
:1008D00000F0D3F901211C4800F087FE012240F20C
:1008E0002551194800F08DFE4021174800F065FFA2
:1008F000FFF7CCFE06B010BD10B540F225511248EE
:1009000000F064FFC8B10E48B0F90000FA2802D325
:1009100000200B4908800C4800F0D8FEC1B20848FE
:10092000B0F900200088401C00B2054B1880034835
:1009300081542021044800F040FF10BD3800002001
:100940001400002016000020004800404F4B00001B
:1009500041542B43474154543D310D0A00000000DF
:10096000BBF1C8A131B3C9B9A60D0A0041542B434C
:1009700053434F4E3D310D0A00000000BBF1C8A1AA
:1009800032B3C9B9A60D0A0041542B43455245471D
:100990003D310D0A00000000BBF1C8A133B3C9B955
:1009A000A60D0A0041542B4E534F43523D2253543F
:1009B0005245414D222C362C302C310D0A000000BE
:1009C000BBF1C8A137B3C9B9A60D0A00BBF1C8A1D4
:1009D00038B3C9B9A60D0A0041542B4E534F434FAB
:1009E0003D302C3131322E37342E33362E313337E1
:1009F0002C383038300D0A0041542B4E534F434FA2
:100A00003D312C3131322E37342E33362E313337BF
:100A10002C383038300D0A00000C014010B56FF052
:100A2000040000F074F92E4800682E49B0FBF1F084
:100A30002D4908700846007800EB4001C1EBC0105A
:100A40004FF6FF7101EAC0002849088010BD014639
:100A5000254A12784A434FF0E0235A6100229A61F6
:100A60001A46126942F001021A6100BF4FF0E022FB
:100A7000106900F001021AB100F48032002AF5D0AA
:100A80004FF0E022126922F001024FF0E0231A61D8
:100A900000229A6170470146144A12884A434FF077
:100AA000E0235A6100229A611A46126942F001025B
:100AB0001A6100BF4FF0E022106900F001021AB184
:100AC00000F48032002AF5D04FF0E022126922F0C3
:100AD00001024FF0E0231A6100229A617047000082
:100AE0000000002000127A00180000201A000020E8
:100AF000014600BF704700BF494A128802F0400219
:100B0000002AF9D0C2B2464B1B1D1A80704710B59F
:100B100086B00446012144F2040000F033FC4FF497
:100B20000070ADF8140003208DF8160018208DF821
:100B3000170005A93B4800F069F94FF48060ADF853
:100B4000140004208DF8170005A9364800F05EF95E
:100B500025208DF8000003208DF801008DF802009B
:100B600001208DF80300684600F087F8019400200A
:100B7000ADF80800ADF80A00ADF80C00ADF81000B3
:100B80000C20ADF80E0001A9254800F0A2FC0122BE
:100B900040F22551224800F034FD0121204800F0A8
:100BA00024FD06B010BD10B540F225511C4800F0E0
:100BB0000DFE10B31A4800F089FDC4B21A4800882F
:100BC00000F40040C8B91848008800F4804060B1C3
:100BD0000A2C03D000201449088020E01248008825
:100BE00040F400401049088019E00D2C06D10E4851
:100BF000008840F480400C49088010E00A480088D2
:100C0000C0F30D0009490C5407480088401C0649F0
:100C1000088008460088F92801DD0020088010BD02
:100C2000003801400008014020000020320100206F
:100C30000948804709480047FEE7FEE7FEE7FEE770
:100C4000FEE7FEE7FEE7FEE7FEE7FEE704480549AC
:100C5000054A064B70470000EB030008310100080D
:100C600090020020900800209004002090040020B2
:100C700031490143314A1160704770B500210023AA
:100C80000F22C47804B32D4C246804F4E064C4F546
:100C9000E064210AC1F10403CA40447804FA03F174
:100CA0008478144021430901254C0678A155047825
:100CB00004F01F050124AC4005786D11AD0005F16D
:100CC000E025C5F8004109E0047804F01F0501247F
:100CD000AC401C4D0678761145F8264070BD1A4A86
:100CE0000A400243154B1B1F1A60704739B1134A63
:100CF000121D12680243114B1B1D1A6006E00F4AB9
:100D0000121D126882430D4B1B1D1A607047042888
:100D100008D14FF0E021096941F004014FF0E022D1
:100D2000116107E04FF0E021096921F004014FF063
:100D3000E0221161704700000000FA050CED00E0B0
:100D400000E400E080E100E080FFFF1F10B50446F2
:100D5000CC48844208D10121042000F02DFB002161
:100D6000042000F029FB46E0C748844208D1012155
:100D7000082000F021FB0021082000F01DFB3AE0D4
:100D8000C248844208D10121102000F015FB002147
:100D9000102000F011FB2EE0BD48844208D1012153
:100DA000202000F009FB0021202000F005FB22E0BC
:100DB000B848844208D10121402000F0FDFA00210A
:100DC000402000F0F9FA16E0B348844208D101212E
:100DD000802000F0F1FA0021802000F0EDFA0AE016
:100DE000AE48844207D10121801500F0E5FA0021C8
:100DF000A01500F0E1FA10BD10B50121084600F081
:100E0000DBFA0021012000F0D7FA10BD2DE9F041F6
:100E1000024600250026002000230024002791F828
:100E200003C00CF00F0591F803C00CF0100CBCF1DE
:100E3000000F03D091F802C04CEA050591F800C0FC
:100E4000BCF1000F31D0146800202BE04FF0010CF2
:100E50000CFA00F3B1F800C00CEA03069E4220D160
:100E600083004FF00F0C0CFA03F7BC4305FA03FCA8
:100E70004CEA040491F803C0BCF1280F06D14FF0EE
:100E8000010C0CFA00FCC2F814C00AE091F803C08F
:100E9000BCF1480F05D14FF0010C0CFA00FCC2F870
:100EA00010C0401C0828D1D31460B1F800C0BCF1B8
:100EB000FF0F34DD546800202EE000F1080C4FF0E5
:100EC000010808FA0CF3B1F800C00CEA03069E42D0
:100ED00021D183004FF00F0C0CFA03F7BC4305FA45
:100EE00003FC4CEA040491F803C0BCF1280F05D1BF
:100EF00000F1080C08FA0CF8C2F8148091F803C04D
:100F0000BCF1480F07D100F1080C4FF0010808FAB6
:100F10000CF8C2F81080401C0828CED35460BDE8FD
:100F2000F0814FF6FF710180022181700421C170B0
:100F300070470246002093680B400BB1012000E08F
:100F4000002070470146886880B270470246002042
:100F5000D3680B400BB1012000E000207047014630
:100F6000C86880B2704701617047416170470AB13B
:100F7000016100E041617047C16070474FF4803209
:100F80000A43826181618261826982697047024697
:100F90000020434B18684FF68073184040EA021057
:100FA00008433F4B186070473E49C8617047F0B531
:100FB0000A46002300240021002500F00046B6F177
:100FC000004F02D1364EF16901E0354E7168C0F331
:100FD000034583B200F44016B6F5401F08D121F056
:100FE00070612F4E766826F070662D4F7E6012E09D
:100FF00000F48016B6F5801F06D1032606FA05F424
:10100000A14341F0706106E0460D360103FA06F691
:10101000B14341F0706122B1460D360103FA06F684
:10102000314300F00046B6F1004F02D11C4EF16191
:1010300001E01B4E7160F0BD30B500228B071C0F24
:101040000F2303FA04F2164B08338C1053F82430A4
:101050009343134C08348D1044F8253023468C10EC
:1010600053F824308C07240F00FA04F423430C4C6B
:1010700008348D1044F8253030BD0A49DC31086051
:101080007047000000080140000C014000100140C2
:101090000014014000180140001C014000200140E4
:1010A0000000014000002042DF48006840F00100DD
:1010B000DD49086008464068DC490840DA49486074
:1010C00008460068DA490840D749086008460068C1
:1010D00020F4802008600846406820F4FE00486044
:1010E0004FF41F0088607047CF49096821F48031B0
:1010F000CD4A11601146096821F480211160B0F5D4
:10110000803F03D0B0F5802F0ED106E0C6490968B4
:1011100041F48031C44A116007E0C349096841F4D1
:10112000A021C14A116000E000BF00BF704710B5A8
:1011300001460022002300204A11012A02D1BA4CA4
:10114000236806E0022A02D1B74C236A01E0B64CBC
:10115000636A01F01F02012494401C400CB101207D
:1011600000E0002010BD38B50020009000240025CC
:1011700000BF3120FFF7DBFF05460098401C0090C0
:101180000098B0F5A06F01D0002DF2D03120FFF70C
:10119000CEFF08B1012400E00024204638BD0146FE
:1011A0000020A14A106820F0F80040EAC100106059
:1011B0007047A04908607047024600209A4B586863
:1011C00020F47C1042EA01031843974B58607047A3
:1011D00098490866704701460020934A506820F0FD
:1011E00003000843506070478F48406800F00C00CF
:1011F0007047014600208C4A506820F0F0000843F8
:101200005060704701460020874A506820F4E06033
:1012100008435060704701460020834A506820F41C
:10122000605040EAC1005060704729B17E4A527A4E
:1012300002437D4B5A7204E07B4A527A82437A4BD6
:101240005A7270477B49D8310860704701460020C8
:10125000754A506820F440400843506070470021B0
:10126000714A20321170704A82F82010012802D091
:1012700004280AD104E001216B4A2032117005E0F4
:101280000521694A2032117000E000BF00BF70479D
:101290006949086070476449096A0143624A1162FA
:1012A0007047654944390860704730B50021002215
:1012B000002400235C4D6D6805F00C0121B1042968
:1012C00005D0082923D105E05C4D056022E05B4D87
:1012D00005601FE0544D6D6805F47012524D6D6845
:1012E00005F48034022505EB92421CB9544D554358
:1012F00005600BE04C4D6D6805F400351DB1504D97
:101300005543056002E04D4D5543056002E04B4DED
:10131000056000BF00BF444D6D6805F0F00109098C
:10132000484D6B5C0568DD4045603F4D6D6805F4D8
:10133000E061090A434D6B5C4568DD4085603A4DCC
:101340006D6805F46051C90A3E4D6B5C4568DD402F
:10135000C560354D6D6805F44041890B3A4D6B5CB5
:10136000C568B5FBF3F5056130BD29B12E4A526958
:1013700002432D4B5A6104E02B4A526982432A4BA7
:101380005A61704729B1284A92690243264B9A61F3
:1013900004E0254A92698243234B9A61704729B140
:1013A000214AD2690243204BDA6104E01E4AD26925
:1013B00082431D4BDA61704729B11B4AD268024350
:1013C000194BDA6004E0184AD2688243164BDA609F
:1013D000704729B1144A12690243134B1A6104E0A1
:1013E000114A12698243104B1A6170471249403901
:1013F000086070470F49C86470470B49C87170474F
:101400000948406A40F080700749486270470146C9
:101410000020054A92680A400AB1012000E000203D
:101420007047014988727047001002400000FFF8C1
:10143000FFFFF6FE000042428004424200127A00A2
:1014400000093D00220000203200002010B50446B3
:10145000FB48844209D101218803FFF7ADFF002139
:101460004FF48040FFF7A8FF32E0F648844209D1EC
:1014700001214804FFF7ADFF00214FF40030FFF7D2
:10148000A8FF25E0F048844209D101218804FFF734
:10149000A0FF00214FF48020FFF79BFF18E0EB48EE
:1014A000844209D10121C804FFF793FF00214FF4C2
:1014B0000020FFF78EFF0BE0E548844208D10121B0
:1014C0000805FFF786FF00214FF48010FFF781FF2A
:1014D00010BD2DE9F04786B005460E460024A24611
:1014E00000BFA1460027B08900B100BF2F462C8A5B
:1014F0004CF6FF700440F08804432C82AC894EF611
:10150000F3100440B08831890843718908430443CB
:10151000AC81AC8A4FF6FF400440B0890443AC82F2
:1015200001A8FFF7C2FEC648874202D1DDF810A02D
:1015300001E0DDF80CA0A88900F4004040B10AEBFE
:10154000CA0000EB0A1031684900B0FBF1F807E06F
:101550000AEBCA0000EB0A1031688900B0FBF1F811
:101560006420B8FBF0F004012009642101FB10891C
:10157000A88900F4004040B1322000EBC900B0FB64
:10158000F1F000F00700044308E0322000EB0910FE
:101590006421B0FBF1F000F00F0004432C8106B091
:1015A000BDE8F0874FF41651016000218180C180B1
:1015B00001810C21418100218181704710B50246D3
:1015C0000020108A4FF2FF0318400B884C882343F9
:1015D0008C882343CC8823431843108210BD0021FC
:1015E000018041808180C180704721B1828942F4AD
:1015F0000052828104E082894DF6FF731A40828195
:101600007047F0B50346002400260025002040F670
:101610006A17B94200D100BF1846C1F3421401F065
:101620001F06012707FA06F5012C01D10C3004E052
:10163000022C01D1103000E014301AB107682F439A
:10164000076002E00768AF430760F0BD1AB1838A04
:101650000B43838202E0838A8B4383827047028A32
:101660004FF6F0731A400282028A0A4302827047E0
:1016700082894FF2FF731A40828182890A438281F4
:10168000704721B1828942F00202828104E082899E
:101690004FF6FD731A4082817047028A4FF6DF735E
:1016A0001A400282028A0A430282704721B1028AEA
:1016B00042F48042028204E0028A4BF6FF731A4031
:1016C00002827047C1F30802828070470146888811
:1016D000C0F308007047818941F0010181817047A2
:1016E000028BD2B20283028B42EA0122028370474C
:1016F000028B02F47F420283028B0A43028370470B
:1017000021B1828A42F02002828204E0828A4FF66E
:10171000DF731A408282704721B1828A42F0100240
:10172000828204E0828A4FF6EF731A408282704709
:1017300021B1828A42F00802828204E0828A4FF656
:10174000F7731A408282704721B1828942F40042C5
:10175000828103E08289C2F30E028281704721B147
:10176000828A42F40062828204E0828A4FF2FF732E
:101770001A4082827047828A4FF6FB731A40828237
:10178000828A0A438282704721B1828A42F0020231
:10179000828204E0828A4FF6FD731A40828270478B
:1017A00002460020B1F5007F00D100BF13880B4036
:1017B0000BB1012000E00020704701F40072B2F587
:1017C000007F00D100BFCA430280704770B5024657
:1017D000002400230025002040F66A16B14200D103
:1017E00000BFC1F3421501F01F03012606FA03F3FF
:1017F000012D02D19689334006E0022D02D1168ACE
:10180000334001E0968A33400C12012606FA04F4B4
:101810001688344013B10CB1012000E0002070BDE7
:1018200010B50022002340F66A14A14200D100BF87
:101830000A1201249440A3B2DC43048010BD0000CE
:10184000003801400044004000480040004C004087
:1018500000500040704700000FB4044910B503AABF
:10186000029800F029FA10BC5DF814FB1C0000205F
:101870000FB41CB5074B06AA7B4469460090059837
:1018800000F001FA0020694600F010FA1CBC5DF877
:1018900014FB00003104000070B50446856900683F
:1018A000C10601D5302600E02026C00707D070BD54
:1018B000D4E9012130469047206A401C20626D1E09
:1018C000F6D570BD70B5044685690078C00707D1AC
:1018D00070BDD4E9012120209047206A401C20627D
:1018E0006D1EF6D570BD00002DE9F04106460024BE
:1018F00010687529314616A510D0AFF30080002876
:1019000002DA404213A507E031688A0701D512A523
:1019100002E0490704D511A5012401E0AFF30080DE
:1019200000210A2206F1240709E0B0FBF2FCB0FB1B
:10193000F2F302FB1C00303078541846491C002892
:10194000F3D123462A463046BDE8F04100F03DB9C8
:10195000000000002D0000002B000000200000000F
:101960002DE9F0474FF0000A89460446C0F820A050
:101970002046E1688847002876D0252806D0D4E99B
:1019800001219047206A401C2062F1E7E16820466F
:1019900000258847C4F81CA006460027C4F818A0F4
:1019A0002A2E09D0304600F0CDF938B304EB870871
:1019B000303EC8F8186019E059F8041B204604EBC3
:1019C00087029161E1688847012F064618D1E069D6
:1019D000002820DA25F020051DE0D8F8180000EBDB
:1019E000800006EB40003038C8F818002046E16857
:1019F0008847064600F0A6F90028EED1012F0AD04C
:101A00002E2E08D12046E16888477F1C0646022F0B
:101A100045F02005C4DBA069002803DA404245F008
:101A20000105A061E80701D025F01005B6B1A6F1C7
:101A30004100192802D8203645F400654A4631464F
:101A4000204625604D46FEF7ADFB58B1012806D073
:101A5000ED1D25F0070000F1080989E704E005F114
:101A6000040985E730468AE7206ABDE8F08730B58B
:101A700005460B462A4613F8014B12F8010B08B134
:101A8000A042F8D01CB1002802D06D1CF1E7284616
:101A900030BD40EA0103024630B59B0710D14FF03C
:101AA000013400E008C208C91D1B9D4315EAC41F8C
:101AB000F8D013F0FF0102F8011B0DD01B0AF8E764
:101AC00011F8013B002B02F8013B05D011F8013B56
:101AD000002B02F8013BF3D130BD10B5431C02E0EE
:101AE00010F8011B71B18107FAD14FF0013202C821
:101AF0008C1A8C4314EAC211F9D0C01A0A0603D01A
:101B0000C01E10BDC01A10BD0A0401D0801E10BD39
:101B10000902FCD0401E10BD421E12F8013F002BEE
:101B2000FBD111F8013B002B02F8013BF9D17047C2
:101B30004FF000020429C0F0128010F0030C00F0F6
:101B40001B80CCF1040CBCF1020F18BF00F8012B74
:101B5000A8BF20F8022BA1EB0C0100F00DB85FEA42
:101B6000C17C24BF00F8012B00F8012B48BF00F80E
:101B7000012B70474FF0000200B51346944696467D
:101B8000203922BFA0E80C50A0E80C50B1F1200190
:101B9000BFF4F7AF090728BFA0E80C5048BF0CC03E
:101BA0005DF804EB890028BF40F8042B08BF70479C
:101BB00048BF20F8022B11F0804F18BF00F8012B0E
:101BC000704770477047704770472DE9F0470D46E2
:101BD00099469246044600F124080168880604D517
:101BE000E06921F01001216000E00120A84201DD40
:101BF000471B00E00027A1697A1902EB0900081AC7
:101C0000A0612078C00602D42046FFF745FE0026DA
:101C100008E0D4E901211AF806009047206A401C28
:101C2000761C20624E45F4DB2078C0060AD520469B
:101C3000FFF732FE06E0D4E9012130209047206A08
:101C4000401C2062381EA7F10107F4DC07E0D4E94C
:101C5000012118F805009047206A401C2062281EC8
:101C6000A5F10105F3DC2046FFF72CFE20780006E5
:101C700002D50220BDE8F0870120FBE701694A1C7C
:101C800002610878704700B58FB0CDE901310021BD
:101C9000059105497944CDE9031011466846FFF7DF
:101CA0005FFE0FB000BD0000E5FFFFFF0A6802F80D
:101CB000010B0A6070470000074B70B50D467B446E
:101CC000FFF7E1FF0446284600F008F810B14FF096
:101CD000FF3070BD204670BD35EEFFFF007B00F089
:101CE00080007047754600F029F8AE460500694649
:101CF000534620F00700854618B020B5FEF7A6FF32
:101D0000BDE820404FF000064FF000074FF00008FC
:101D10004FF0000B21F00701AC46ACE8C009ACE87D
:101D2000C009ACE8C009ACE8C0098D46704704465C
:101D3000AFF300802046FEF747FA000000487047E6
:101D40002C02002030380A2801D2012070470020E0
:101D500070470000741D00080000002038000000DB
:101D60006C010008AC1D0008380000205808000075
:101D70008801000800A24A040000000000000000E2
:101D8000010203040607080900000000000000002B
:101D90000000000000000000000001020304010236
:0C1DA000030406070809020406080000FE
:0400000508000131BD
:00000001FF
